:020000020000FC
:1000000000C00FEF0DBF08E00EBF06D010D017D014
:1000100019D092D0A7D0FCCF00E00093000100934C
:10002000020100E000930301009304010895569A31
:1000300003E804BD03E005BD00E007BD0895529A42
:100040005A9A08950F931F938F939F938091030162
:1000500090910401019680930301909304018530EF
:1000600000E09007F0F080E090E08093030190932F
:100070000401009102010395043008F000E00093B0
:100080000201003029F0013029F0023029F006C0C9
:1000900009E105C00CE103C000E201C003E20093E6
:1000A00000019F918F911F910F9108950F931F93BE
:1000B0002F933F934F93529A5A9864D05A9A5298DA
:1000C0006CD034D036D032D045E0A5E0B1E01DD0C0
:1000D0000D934A95E1F7A5E0B1E00D911D91010F57
:1000E0001D91010F1D91010F1C91011739F4A5E01D
:1000F000B1E012960C910093000101C000004F91F5
:100100003F912F911F910F9108951F932F9318E006
:1001100000E00FD020E52A95F1F7000F4A99016021
:1001200005D01A95B1F72F911F9108954A99FECFE6
:1001300008954A9BFECF08950F931F932F9300912C
:100140000001083138F0043238F4085117E1019FFA
:10015000002D03C000E001C00FEF07BD2F911F91DC
:100160000F9108950F931F932F9324E118EC0AEF3A
:100170000A95F1F71A95D9F72A95C1F72F911F9192
:100180000F9108950F931F9314EB0AEF0A95F1F75F
:100190001A95D9F71F910F9108950F9300EA0A95C8
:0601A000F1F70F91089534
:00000001FF
